:020000040800F2
:100000007807002089010008FF1B00088D190008EF
:10001000FD1B00084B0400084121000800000000FF
:10002000000000000000000000000000391D000872
:100030008304000800000000011C00083B1D0008AC
:10004000A3010008A3010008A3010008A301000800
:10005000A3010008A3010008A3010008A3010008F0
:10006000A3010008A3010008A3010008A3010008E0
:10007000A3010008A3010008A3010008A3010008D0
:100080004D040008A3010008A3010008A301000813
:10009000A3010008A3010008A3010008A3010008B0
:1000A000A3010008A3010008A3010008A3010008A0
:1000B000A3010008A3010008A3010008A301000890
:1000C000A3010008A3010008A3010008A301000880
:1000D000A3010008A301000835210008A3010008BE
:1000E000A3010008A3010008A301000800F002F822
:1000F00000F03AF80AA090E8000C82448344AAF188
:100100000107DA4501D100F02FF8AFF2090EBAE885
:100110000F0013F0010F18BFFB1A43F0010318473B
:10012000E020000000210000103A24BF78C878C108
:10013000FAD8520724BF30C830C144BF04680C60ED
:10014000704700000023002400250026103A28BF35
:1001500078C1FBD8520728BF30C148BF0B60704739
:100160001FB51FBD10B510BD00F035F91146FFF7E2
:10017000F7FF02F00DF800F053F903B4FFF7F2FFB8
:1001800003BC00F05BF900000948804709480047BC
:10019000FEE7FEE7FEE7FEE7FEE7FEE7FEE7FEE737
:1001A000FEE7FEE704480549054A064B7047000094
:1001B0008F1D0008ED00000878010020780700205E
:1001C000780300207803002053EA020C00F06980D5
:1001D0002DE9F04B4FF00006002B1FBFB3FA83F55B
:1001E00003FA05F424FA05F65E4012BF1643B2FA8C
:1001F00082F502FA05F4C5F120051EBF22FA05FCBE
:1002000044EA0C04203556EA044C4FEA144418BF63
:10021000641C4FF000084FF00009904271EB030C92
:1002200039D3002919BFB1FA81F701FA07F6B0FAFC
:1002300080F700FA07F6C7F120071EBF20FA07FC77
:1002400046EA0C062037B6FBF4FCA7EB0507103F87
:1002500007F01F0BCBF120060CFA0BFB2CFA06F66D
:1002600044BFB3460026202FA4BF5E464FF0000BCC
:100270005BEA060C08BF4FF0010B19EB0B09ABFB57
:10028000027C48EB0608C01B06FB02CC0BFB03CC30
:1002900071EB0C01C1E70B46024641464846BDE8FA
:1002A000F08B13B54FF000004FF00001AFF300806A
:1002B000BDE81C40704700000FB41CB5074B06AAF0
:1002C0007B4469460090059800F059F80020694683
:1002D00000F068F81CBC5DF814FB0000E1000000B1
:1002E00010B5431C02E010F8011B71B18107FAD16F
:1002F0004FF0013202C88C1A8C4314EAC211F9D0B3
:10030000C01A0A0603D0C01E10BDC01A10BD0A04D0
:1003100001D0801E10BD0902FCD0401E10BD4FF060
:10032000000200B5134694469646203922BFA0E845
:100330000C50A0E80C50B1F12001BFF4F7AF090751
:1003400028BFA0E80C5048BF0CC05DF804EB890042
:1003500028BF40F8042B08BF704748BF20F8022B85
:1003600011F0804F18BF00F8012B7047704770479D
:100370007047000001694A1C02610878704700B5A7
:100380008FB0CDE901310021059105497944CDE9CE
:1003900003101146684600F00AF80FB000BD0000D7
:1003A000E5FFFFFF0A6802F8010B0A6070472DE9BC
:1003B000F04106460024D6E90170F56880463046D3
:1003C00003E04146B847641C3046A8470028F8D1EE
:1003D0002046BDE8F081754600F02CF8AE460500D9
:1003E0006946534620F00700854618B020B5FFF750
:1003F000D9FEBDE820404FF000064FF000074FF057
:1004000000084FF0000B21F00701AC46ACE8C00932
:10041000ACE8C009ACE8C009ACE8C0098D4670473B
:1004200010B50446AFF300802046BDE81040FFF74A
:10043000A4BE0000004870471401002001491820A4
:10044000ABBEFEE7260002007047FEE7014800F061
:100450008BB80000D000002030B590F84050012447
:10046000AC40C56B6C60046863604368102B036824
:1004700003D099600068C26030BD9A600068C160B6
:1004800030BD704772B6FEE710B590F8211000221B
:10049000022905D00421816380F82020012010BDAD
:1004A00001680B6823F00E030B6001680B6823F0F2
:1004B00001030B6090F84030C46B012101FA03F393
:1004C000636080F8211080F82020104610BD0000E5
:1004D00010B590F821100024022903D00421816373
:1004E00001243DE001680A6822F00E020A600168FA
:1004F0000A6822F001020A601A4A0168914201D199
:10050000012121E0174A1432914201D110211BE050
:10051000144A2832914201D1891515E0114A3C3222
:10052000914201D189140FE00E4A5032914202D11A
:100530004FF4803108E00B4A6432914202D14FF40B
:10054000801101E04FF08071064A083A51600121A4
:1005500080F82110002180F82010416B01B18847FC
:10056000204610BD080002402DE9F05FC16B0C6809
:1005700001680B68D0F840C0042202FA0CF2494D21
:10058000DFF824A1494E4A4FDFF828B1DFF828E10F
:1005900022422CD05A072AD50A68920603D40A6848
:1005A00022F004020A600168A94201D1042219E084
:1005B000514501D1402215E0B14202D14FF4806291
:1005C00010E0B94202D14FF480420BE0594502D10C
:1005D0004FF4802206E0714502D14FF4800201E021
:1005E0004FF080622F4908394A60C16A3BE04FF002
:1005F000020808FA0CF818EA040F4FF000094FF04F
:10060000010235D05FEA837832D50B689B0605D4AA
:100610000B6823F00A030B6080F821200168A942CF
:1006200001D1022219E0514501D1202215E0B14249
:1006300002D14FF4007210E0B94202D14FF40052DF
:100640000BE0594502D14FF4003206E0714502D16A
:100650004FF4001201E04FF00072124908394A606D
:1006600080F82090816A00291AD0BDE8F05F084721
:10067000082505FA0CF5254212D01B0710D50B688A
:1006800023F00E030B6090F84010C36B02FA01F1E7
:100690005960826380F8212080F82090016BE2E7A6
:1006A000BDE8F09F080002401C00024030000240FC
:1006B00044000240580002406C00024030B528B3AC
:1006C00008C8134914221944B1FBF2F18900C1632F
:1006D00010498163022141771A6843F6F0718A4319
:1006E000D0E900142143D0E902452C432143046999
:1006F0002143446921438469214311431960002146
:100700004163012242770177084630BD012030BDA8
:10071000F8FFFDBF0000024070B5044690F82000CD
:10072000002501280CD0012084F8200094F82160D5
:100730000020012E06D084F820000225284670BD36
:10074000022070BD022684F82160A063206806683C
:1007500026F0010606602046FFF77EFEE06A0028CC
:100760002068016802D041F00E0106E021F004018A
:1007700001602068016841F00A0101602068016899
:1007800041F001010160D9E770B5044600F004F9B9
:100790000546601C02D004480078044400F0FCF8D0
:1007A000401BA042FAD370BD0C0000202DE9F84F89
:1007B000DFF8B891002409F1040A0AF1040B23467A
:1007C0000F270BF1040EC9E00125A5402A40AA42DB
:1007D0007DD1674ED1F804C0ACEB0608B44532D0E9
:1007E00014DCBCF1030F3AD009DCBCF1000F2AD0B5
:1007F000BCF1010F1CD0BCF1020F31D11DE0BCF1E6
:10080000110F17D0BCF1120F2AD119E0B8F5881FCB
:1008100019D006DCB8F5803F15D0B8F5801F1FD180
:1008200011E0B8F5001F0ED0B8F5041F18D10AE08A
:10083000CB6815E0CB681B1D12E0CB6808330FE0D6
:10084000CB680C330CE08B682BB1012B4FF0080305
:1008500003D0456104E0042302E0056100E00023C9
:10086000FF2A01D8064601E000F104064FEA84059C
:1008700001D9A5F12005D6F8008007FA05FC28EA81
:100880000C0803FA05F548EA0508C6F800804D682B
:10089000ED0062D5374DAE6946F00106AE61AD6937
:1008A00024F0030605F001050095334D06EB050C19
:1008B000DCF80850A607360F07FA06F825EA0805FF
:1008C000DFF8B880404503D14FF0000817E044E05E
:1008D000DFF8AC80404502D14FF001080FE0DFF8AF
:1008E000A480404502D14FF0020808E0DFF898806C
:1008F000404502D14FF0030801E04FF0040808FA28
:1009000006F848EA0508CCF808804D68D9F8006078
:10091000ED034D4601D5164300E096432E604D6829
:10092000DAF80060AD03554601D5164300E0964362
:100930002E604D68DBF80060ED025D4601D5164380
:1009400000E096432E604D68DEF80060AD0275460B
:1009500001D5164300E096432E60641C0D682A46BC
:10096000E5407FF431AFBDE8F88F0000000401409E
:10097000000011100010024000000140000801407A
:10098000000C014000100140001401400AB1016157
:1009900070470904FBE700000148806870470000C9
:1009A0000C00002002488168027811448160704781
:1009B0000C000020074810B5016841F010010160EB
:1009C000032000F075F80F2000F006F800F024F87E
:1009D000002010BD0020024070B50D4D04464FF4BC
:1009E0007A712878B1FBF0F00A490968B1FBF0F0A0
:1009F00000F0D1FD48B9102C07D200222146501E2C
:100A000000F036F800206C6070BD012070BD000061
:100A10000C000020180000200C4808B5816941F046
:100A200001018161816901F001010091C16941F019
:100A30008051C161C06900F0805000900448416855
:100A400021F0E06141F00071416008BD00100240FA
:100A500000000140002809DB00F01F020121914045
:100A60004009800000F1E020C0F80011704700004C
:100A7000F0B40E4B1B680C46C3F30223C3F1070509
:100A8000042D00D90425191D072901D2002300E0F7
:100A9000DB1E012606FA05F1491E214099409E40C1
:100AA000761E16403143F0BC01F062BB0CED00E055
:100AB000064900F0070208684FF6FF03184040EAB5
:100AC0000220034A10430860704700000CED00E06C
:100AD0000000FA052DE9F0470F46050061D0434EAE
:100AE000306800F00700B84209D2306820F00700F3
:100AF00038433060306800F00700B84251D12868B0
:100B00003B4C810712D5400703D5606840F4E06094
:100B100060602878000703D5606840F4605060602A
:100B20006068A96820F0F000084360602878C0077A
:100B300028D06868012810D02168022810D08907C1
:100B400000292EDA616821F0030101436160FFF79B
:100B500023FF804641F288390DE021688903EFE7E1
:100B60008901EDE7FFF718FFA0EB0801494502D91D
:100B70000320BDE8F0876068696800F00C00B0EB06
:100B8000810FEFD1306800F00700B8420BD9306810
:100B900020F0070038433060306800F00700B842AA
:100BA00001D00120E5E72878400705D56068E968AD
:100BB00020F4E060084360602878000706D560688C
:100BC000296920F4605040EAC100606000F038F804
:100BD0006168084AC1F30311515CC84006490860C6
:100BE00006480068FFF7F8FE0020C2E70020024038
:100BF00000100240E821000818000020100000202A
:100C00000448054900684968044AC1F30221515C5F
:100C1000C84070471800002000100240F82100086A
:100C20000448054900684968044AC1F3C221515C7F
:100C3000C84070471800002000100240F82100084A
:100C400012A185B00FC98DE80F0014A0144A0068E6
:100C500004905168134801F00C03042B10D0082BAA
:100C60000ED1C1F38343C9031DF803000AD55168AF
:100C700004AAC1F34041515C0A4A5043B0FBF1F071
:100C800005B0704708494843FAE70000020304052D
:100C9000060708090A0B0C0D0E0F101001020000C8
:100CA0000010024000127A0000093D002DE9F84FC3
:100CB000040070D02078C04DC00749D06868C0F3E8
:100CC0008100012807D06868C0F38100022809D19B
:100CD0006868C00306D52868800339D56068002895
:100CE000E7D035E06068B0F5803F0BD010B1B0F5CB
:100CF000A02F11D0286820F480302860286820F4C4
:100D0000802002E0286840F480302860606890B15C
:100D1000FFF742FE06460AE0286840F4802028607B
:100D2000F0E700BFFFF738FE801B642873D82868FF
:100D30008003F7D50CE0FFF72FFE064605E000BF65
:100D4000FFF72AFE801B6428F0D828688003F7D4B8
:100D500020789A4E80074FF001094FF0000839D5EE
:100D6000686810F00C0F07D06868C0F38100022893
:100D700009D16868C00306D42868800714D52069A3
:100D8000012808D110E02069B0B1C6F80090FFF743
:100D900003FE074605E00AE1FFF7FEFDC01B02283F
:100DA000C4D828688007F7D52868616920F0F80062
:100DB00040EAC10028600DE0C6F80080FFF7ECFDB6
:100DC000074604E0FFF7E8FDC01B022823D8286887
:100DD0008007F7D4207800072CD57948A169D9B1CC
:100DE000C0F80090FFF7D8FD074604E0FFF7D4FDF8
:100DF000C01B02280FD8686A8007F7D571484FF4E6
:100E0000FA510068B0FBF1F0009000BF0098411E5D
:100E10000091FAD20EE080E0C0F80080FFF7BCFD40
:100E2000074604E0FFF7B8FDC01B022875D8686AC2
:100E30008007F7D42078400760D5E8690027C00014
:100E400008D4E86940F08050E861E869012700F0C3
:100E5000805000905C480168C90513D4016883463E
:100E600041F480710160FFF797FD824606E000BF04
:100E7000FFF792FDA0EB0A0064284ED8DBF80000D3
:100E8000C005F5D5E06801280AD008B1052813D0BF
:100E9000286A20F001002862286A20F0040002E09D
:100EA000286A40F001002862E06841F2883B98B16E
:100EB000FFF772FD82460BE0286A40F004002862CA
:100EC000EEE700BFFFF768FDA0EB0A0159455AD8CD
:100ED000286A8007F6D50CE0FFF75EFD824605E044
:100EE000FFF75AFDA0EB0A0159454CD8286A800744
:100EF000F6D41FB1E86920F08050E861E06988B35A
:100F00006968C1F38101022944D00228C6F86080D3
:100F100004D0FFF741FD044638E034E0FFF73CFD24
:100F2000074604E0FFF738FDC01B02282BD82868CD
:100F30008001F7D4206AB0F5803F05D16868A168C8
:100F400020F4003008436860D4E908010843696868
:100F500021F4741108436860C6F86090FFF71CFD27
:100F6000044606E025E000BFFFF716FD001B02283F
:100F700009D828688001F7D51BE000BFFFF70CFDFA
:100F8000001B022802D90320BDE8F88F28688001E1
:100F9000F4D40EE00128F7D06868226A00F48031AA
:100FA000914204D1616A00F47010884201D001209E
:100FB000EAE70020E8E7000000100240000042429B
:100FC00080044242180000200070004090F8510058
:100FD000704770B5040009D0606A002540B12561F2
:100FE0006561A56294F8510040B10CE0012070BD2C
:100FF0006068B0F5827FF4D0E561F2E784F8505084
:10100000204600F03FF8022084F851002068016873
:1010100021F040010160A088218900F4827001F470
:1010200004410843A18901F400610843217C01F0D7
:1010300002010843217D01F001010843218B01F4E5
:1010400000710843217F01F03801084394F8201013
:1010500001F080010843218D01F40051084321680B
:101060000860A069042101EA1040216848602068F6
:10107000C16921F40061C1616565012084F85100F6
:10108000002070BD30B585B0002400940194029416
:10109000039400681449884223D11448816941F4BB
:1010A00080518161816901F480510491816941F02D
:1010B0000401816180690E4D00F004000490A020BD
:1010C0000090022001900320039069462846FFF714
:1010D0006DFB4020CDE90004694628460294FFF7E5
:1010E00065FB05B030BD000000300140001002403B
:1010F000000801402DE9F84F044640680025984655
:1011000016460F464FF0040BB0F5827F01D1A06860
:1011100088B194F85000012818D0012084F85000BC
:10112000FFF73AFC814694F851004FF0000A01287D
:101130000ED0022582E084F851B013460A462046BC
:10114000CDF8008000F036F9BDE8F88F0220FBE70B
:10115000002F72D0002E70D084F851B0C4F854A083
:10116000A763A687E687C4F830A0A4F834A0A4F843
:1011700036A0C4F840A0C4F844A0A068B0F5004F61
:1011800009D12068016821F04001016020680168F0
:1011900021F48041016020680168490603D4016898
:1011A00041F040010160E068D8B139E02068816811
:1011B000C90709D0007BA16B0870A06B401CA0631D
:1011C000E08F401EE0870CE0FFF7E6FBA0EB090193
:1011D000414503D3B8F1FF3F03D036E0B8F1000F2B
:1011E00033D0E08F0028E1D11DE020688168C90775
:1011F00009D0C068A16B0880A06B801CA063E08F41
:10120000401EE0870CE0FFF7C7FBA0EB090141455A
:1012100003D3B8F1FF3F03D017E0B8F1000F14D0AB
:10122000E08F0028E1D14A464146204600F0E9FC23
:1012300008B120206065606D00B10125012084F8AF
:10124000510084F850A028467EE70325F6E72DE9F3
:10125000F84F044690F8500000271D461646894670
:1012600001280DD04FF0010B84F850B0FFF794FB2C
:10127000804694F85100BA46012804D0022793E032
:101280000220BDE8F88FB9F1000F73D0002E71D0A5
:10129000032084F85100C4F854A0C4F83090A68606
:1012A000E686C4F838A0A4F83CA0A4F83EA0C4F890
:1012B00044A0C4F840A0A068B0F5004F09D1206850
:1012C000016821F0400101602068016841F480411B
:1012D000016020680168490603D4016841F04001BB
:1012E0000160E068B0F5006F606803D030B3012E94
:1012F00024D041E008B1012E1CD1206B2168008868
:10130000C86006E020688168890709D5216B0988D3
:10131000C160206B801C2063E08E401EE08609E0E7
:10132000FFF73AFBA0EB0800A84202D3681C01D0EB
:1013300031E07DB3E08E0028E4D120E0206B21680D
:101340000078087306E020688168890709D5216B59
:1013500009780173206B401C2063E08E401EE086FC
:101360000AE0FFF719FBA0EB0800A84203D3681CB2
:1013700002D010E017E06DB1E08E0028E3D14246C4
:101380002946204600F06BFC08B120206065A0686B
:1013900018B106E0FFE7032706E02068C16880680F
:1013A0000090606D00B1012784F851B084F850A01E
:1013B000384666E72DE9F84F044690F850000027BC
:1013C0000A9E1D4692468B464FF0010901280ED019
:1013D000012084F85000FFF7DFFA804694F85100AE
:1013E000616801280CD0B1F5827F07D102E00220AC
:1013F000BDE8F88FA16809B9042801D00227C2E02E
:10140000BBF1000F27D0BAF1000F24D01DB394F820
:101410005100042802D0052084F8510000206065A6
:10142000C4F838A0E587A587C4F830B0E586A5865E
:101430002064606420680168490603D4016841F0B3
:1014400040010160E068B0F5006F606805D0E8B366
:10145000012D46D07FE0012795E008B1012D39D15B
:10146000206B21680088C860206B801C2063E08EA0
:10147000401EE0862EE02068816889070FD5E18E46
:1014800069B1B9F1010F0AD1216B0988C160206BE4
:10149000801C2063E08E401EE0864FF0000920682B
:1014A0008168C9070CD0E18F51B1C068A16B088079
:1014B000A06B801CA063E08F401EE0874FF0010905
:1014C000FFF76AFAA0EB0800B04200E009E001D3A0
:1014D000701C50D1E08E0028CDD1E08F0028CAD1F9
:1014E0003FE0206B216800780873206B401C20636C
:1014F000E08E401EE0862EE02068816889070FD5C7
:10150000E18E69B1B9F1010F0AD1216B097801733C
:10151000206B401C2063E08E401EE0864FF00009E7
:1015200020688168C9070CD0E18F51B1C068A16BF8
:101530000870A06B401CA063E08F401EE0874FF056
:101540000109FFF729FAA0EB0800B04202D3701C92
:1015500001D010E07EB1E08E0028CDD1E08F0028D0
:10156000CAD142463146204600F079FB28B1012716
:101570002020606507E0032705E0A06818B920680F
:10158000C16880680090012084F85100002084F830
:10159000500038462CE710B5401EB0F1807F01D3D3
:1015A000012010BD4FF0E02460610F21601700F0B2
:1015B000DFFD0020A06107202061002010BD38B5AC
:1015C000044690F83E0020281CD181B17AB194F8ED
:1015D0003C00012816D0012084F83C0020632046FE
:1015E00000F070FD002803D1216B012901D00120FA
:1015F00038BD21680A684A680092CA6842F0100241
:10160000CA6038BD022038BD00680349884202D153
:101610000249012008707047004400401C0000206F
:1016200070470000F8B5026804461068D168536935
:1016300010F00F0F4FF0000553D003F0010601F436
:10164000907737435FD0C20705D0CA0503D5226C17
:1016500042F001022264420705D5DA0703D0226C6A
:1016600042F002022264820705D5DA0703D0226C19
:1016700042F004022264020707D501F0200232433F
:1016800003D0226C42F008022264226C002A34D07B
:10169000800604D5880602D5204600F05BFC206851
:1016A0004069216CC0F38010090700D430B3204694
:1016B00000F02FFC2068416949061BD5416921F0E3
:1016C00040014161A06BA8B158494163A06BFEF78E
:1016D000FFFE002811D0A06B416B01B0BDE8F040C7
:1016E000084783060FD58B060DD52046BDE8F84088
:1016F00000F030BC2046FFF793FFF8BD2046FFF70F
:101700008FFF2564F8BD266B2023012E52D1C6061B
:1017100050D5CE064ED510685068009050694006EE
:101720002AD5A16B086840680004000CEAD0A68D99
:101730008642E7D9E0858869202818D0D06820F44F
:101740008070D0602068416921F00101416120680A
:10175000416921F04001416184F83E3025632068F1
:10176000C16821F01001C160A06BFEF78DFEA08D55
:10177000E18D401A81B219E0A08DE18D401A81B24D
:10178000E08D0028BED00029BCD0D06820F4907035
:10179000D0602068426922F00102426184F83E3044
:1017A00025632068C26822F01002C2602046FFF75D
:1017B0002BFFF8BD05062BD50D0629D594F83D0065
:1017C0002128F6D1A068B0F5805F01D12069B0B1C1
:1017D000206A411C2162216800784860E08C401E2C
:1017E0000004000CE084E4D12068C16821F080018D
:1017F000C1602068C16841F04001C160F8BD206A45
:101800000088C0F308005060206A801C2062E5E771
:101810004006F3D54806F1D5D168204621F04001B5
:10182000D16084F83D3000F08FF8F8BD451E000807
:1018300070B5040004D094F83D00002510B106E016
:10184000012070BD84F83C50204600F023F824208D
:1018500084F83D002068C16821F40051C160204631
:1018600000F0D4FB2068016921F4904101612068F7
:10187000416921F02A0141612068C16841F40051A9
:10188000C1602564202084F83D0084F83E000020DB
:1018900070BD000070B586B0002506460095019524
:1018A000029503950068224988423ED12149C869C2
:1018B00040F40030C861C86900F4003004908869C1
:1018C00040F00400886188691B4C00F0040004901B
:1018D00004200090022001900320039069462046D6
:1018E000FEF764FF0820CDE9000569462046029511
:1018F000FEF75CFF124C1148C4E900058020C4E9E2
:10190000025025616561A5612046E561FEF7D6FEBE
:1019100008B1FEF7B7FDB4630022114626206662C7
:10192000FFF7A6F82620FFF795F806B070BD000077
:101930000044004000100240000801406C000240DA
:10194000D0000020704770477047000001480078C1
:10195000704700001C00002010B5002202600271D8
:101960000A4601460448FFF72AFE04480068016859
:1019700021F00401016010BD8C000020D000002087
:1019800001490020087070471C000020FEE700009D
:1019900010B51D4C002201212046FEF7F7FF0A205A
:1019A000FEF7F2FE012211462046FEF7EFFF42202D
:1019B00000F082F8122801D0012010BD8021012002
:1019C00000F0CEF81148002100F0A8F800210E2008
:1019D00000F0C6F800210F2000F0C2F80C2000F043
:1019E0006BF840F003010C2000F0BAF80421262027
:1019F00000F0B6F88F21092000F0B2F88121012013
:101A000000F0AEF8002010BD000C0140400ECF19D0
:101A10002DE9F04107460C46222000F04DF806461D
:101A20002044FF2801DDC6F1FF04002504E0795DB4
:101A3000002000F095F86D1CA542F8DB3019BDE8D8
:101A4000F041C1B2222000F08BB810B5012000F0A7
:101A500033F8C043800711D08121012000F080F8C5
:101A600072211D2000F07CF800210D2000F078F894
:101A70000021222000F074F8002010BD012010BDCC
:101A800010B564248321012000F06AF803E0641E8D
:101A900014F0FF040AD0122000F00EF80007F6D56B
:101AA0000821122000F05CF8002010BD0120FEF794
:101AB0006BFE012010BD00007CB500F07F008DF8AA
:101AC00004000020134C8DF800000246102120462F
:101AD000FEF75CFF4FF47A752B46012201A90E48F0
:101AE000FFF7B5FB0C48FFF771FA0128FAD12B4636
:101AF000012269460848FFF7FDFA0748FFF766FA32
:101B00000128FAD1012210212046FEF73FFF9DF85F
:101B100000007CBD000801403400002070B5C904FD
:101B200041EA5031C0040D4A0023FEF74DFB044644
:101B3000000C0D4640EA0140C1B2062000F010F84A
:101B4000200A40EA0560C1B2072000F009F8E1B2BE
:101B5000BDE87040082000F003B800000048E8012C
:101B600033B581B040F08000124C8DF800000022A7
:101B700010212046FEF70AFF4FF47A752B4601220A
:101B800069460D48FFF763FB0B48FFF71FFA012872
:101B9000FAD12B46012202A90748FFF758FB064855
:101BA000FFF714FA0128FAD1012210212046FEF78E
:101BB000EDFE3EBD00080140340000200E4810B587
:101BC0000C4901604FF48271416000218160C16065
:101BD0004FF400720161C0E90512C1610162416206
:101BE00081620A21C162FFF7F4F9002801D072B6C0
:101BF000FEE710BD0030014034000020FEE7FEE7A4
:101C00007047F8B5044640684FF48273984217D184
:101C1000A0684FF48065B0F5004F01D0A8420FD105
:101C20002068066826F0400606606068984207D182
:101C3000A068A84204D100920B460022012103E0D3
:101C400000920B4600228021204600F019F800285F
:101C500004D0606D40F0200060650320F8BD38B509
:101C60000B46009204460022802100F009F800286B
:101C700004D0606D40F020006065032038BD000096
:101C80002DE9F8431E46914688460446089DFEF716
:101C900083FE401B351AFEF77FFE07462548006885
:101CA000C0F3CB30684338E0701C37D0FEF774FEC9
:101CB000C01BA84203D215B1009860B32CE0206885
:101CC000416821F0E00141606068B0F5827F0BD18E
:101CD000A068B0F5004F02D0B0F5806F04D1206845
:101CE000016821F040010160A06AB0F5005F09D1F0
:101CF0002068016821F4005101602068016841F406
:101D000000510160012084F85100002084F8500047
:101D10000320BDE8F8830025401E009020688168FC
:101D200038EA010004D000214945BDD10020F0E788
:101D30000121F9E7180000207047FEF733BE10B507
:101D400090B028216846FEF7EAFA14210AA8FEF7A7
:101D5000E6FA022000900120049010200024059053
:101D600007946846FEF7A2FF08B172B6FEE70F209F
:101D7000CDE90A040C940D9400210AA80E94FEF7F4
:101D8000A9FE002801D072B6FEE710B010BD704762
:101D900070B586B0FEF70EFEFFF7D1FF0024254D8B
:101DA0000094019402940394A86940F00400A8618F
:101DB000A869214E00F0040004902246102130460C
:101DC000FEF7E4FD102000900120CDE9010402207F
:101DD000039069463046FEF7E9FC686940F001006F
:101DE00068616869002200F001000090114610202F
:101DF000FEF73EFE1020FEF72DFEFFF7DFFE104936
:101E00000E4808604FF41650C1E901040C20CC6064
:101E1000C1E904408C610846CC61FFF709FD08B1B7
:101E200072B6FEE706B03046BDE8704001221021D0
:101E3000FEF7ACBD00100240000801400044004025
:101E40008C00002010B5406A0021C185C184FFF7D5
:101E5000E7FB10BD70B5446A2068406994F83D10F6
:101E6000C0F3C0100025212904D118B1E584204613
:101E700000F067F82068406994F83E10C0F38010C5
:101E8000222904D118B1E585204600F042F8206CE3
:101E900040F0100020642046FFF7C2FB70BD10B573
:101EA0000146406A0968096889061BD40021C1857A
:101EB0000168CA6822F48072CA6001684A6922F027
:101EC00001024A6101684A6922F040024A61202108
:101ED00080F83E10016B012904D10168CA6822F024
:101EE0001002CA60016B012902D0FFF72BFD10BD63
:101EF000818DFFF789FB10BD10B5406A016B012988
:101F000002D0FFF720FD10BD818D4908FFF77CFB53
:101F100010BD0168CA6822F49072CA6001684A69FB
:101F200022F001024A61016B012904D10168CA68EB
:101F300022F01002CA60202180F83E1000210163C7
:101F400070470168CA6822F0C002CA60202180F888
:101F50003D10704708B590F83E10222901D00220AC
:101F600008BD82684FF480539A4201D1016921B1C2
:101F7000816A9A421BD04AB10AE00268816A5268BB
:101F8000C2F308020A80816A891C08E0026972B102
:101F90000268526802F07F020A70816A491C8162FD
:101FA000C18D491E0904090CC18503D019E00268DE
:101FB0005268F1E70168CA6822F02002CA6001682D
:101FC000CA6822F48072CA6001684A6922F001027C
:101FD0004A61202180F83E10016B012903D0FFF7F0
:101FE000B1FC002008BD002101630168CA6822F02D
:101FF0001002CA6001680A68D20602D50A684968F8
:102000000091818DFFF700FBEBE7000070B50446FF
:1020100000680169E26821F44051114301612169BE
:10202000A0680843616908432168CA6841F20C63EB
:102030009A430243CA6020684169A26921F4407151
:10204000114341611E492068884202D1FEF7E8FD34
:1020500001E0FEF7D5FD00EBC00101EB0012606866
:1020600064218000B2FBF0F3B3FBF1F36FF01806CC
:102070007343B2FBF0F5B2FBF0F605EB83053223B8
:1020800003EB0515B5FBF1F5B6FBF1F605F0F00530
:1020900005EB0615B2FBF0F6B2FBF0F0B0FBF1F089
:1020A0006FF01802504306EB800003EB0010B0FB0A
:1020B000F1F0216800F00F002844886070BD000036
:1020C0000038014038B581628285002513460446F8
:1020D0000564222084F83E00A26B13489062A26B34
:1020E0001248D062A26B12481063A06B0A46456387
:1020F0002168A06B091DFEF70FFB2068016841688D
:10210000009184F83C50C16841F48071C16020683E
:10211000416941F0010141612068416941F040019C
:102120004161002038BD00009F1E0008F91E000814
:10213000551E00080148FFF775BA00008C0000200A
:10214000FEE7000010B50446FFF77FFC0748FEF7E6
:10215000C7F8C1B22046FFF75BFCFFF791FCBDE872
:1021600010404FF47A70FEF70FBB000020000020F3
:102170000907090E002804DB00F1E02080F80014B4
:10218000704700F00F0000F1E02080F8141D704748
:10219000FFF7FEFD05210F48FFF7DEFBFFF7F8FB19
:1021A0000DA11048FEF788F80A4C00BFFFF7CEFBE0
:1021B00058B1FFF7E5FB07482168401D0160217910
:1021C00001710521401FFFF7C7FB0648FFF7BAFF63
:1021D000ECE7000000000020536D6172742047722C
:1021E00069640000200000200000000000000000E2
:1021F00001020304060708090000000001020304AD
:102200002022000800000020200000002801000813
:102210004022000820000020580700004401000868
:1022200000000000000000000000000001000000AD
:1022300010000000000000000024F4000000000076
:04000005080000ED02
:00000001FF
